{
  "contractName": "Quorum",
  "abi": [
    {
      "constant": true,
      "inputs": [],
      "name": "index",
      "outputs": [
        {
          "name": "",
          "type": "uint256"
        }
      ],
      "payable": false,
      "stateMutability": "view",
      "type": "function"
    },
    {
      "constant": false,
      "inputs": [
        {
          "name": "age",
          "type": "uint256"
        },
        {
          "name": "name",
          "type": "string"
        }
      ],
      "name": "createpeople",
      "outputs": [
        {
          "name": "",
          "type": "uint256"
        }
      ],
      "payable": false,
      "stateMutability": "nonpayable",
      "type": "function"
    },
    {
      "constant": true,
      "inputs": [
        {
          "name": "name",
          "type": "string"
        }
      ],
      "name": "get",
      "outputs": [
        {
          "name": "",
          "type": "uint256"
        }
      ],
      "payable": false,
      "stateMutability": "view",
      "type": "function"
    },
    {
      "constant": false,
      "inputs": [
        {
          "name": "number_1",
          "type": "uint256"
        },
        {
          "name": "number_2",
          "type": "uint256"
        }
      ],
      "name": "balancing",
      "outputs": [],
      "payable": true,
      "stateMutability": "payable",
      "type": "function"
    }
  ],
  "bytecode": "0x608060405234801561001057600080fd5b5061064f806100206000396000f3fe60806040526004361061003f5760003560e01c80632986c0e514610044578063693ec85e1461006f578063d27fd3151461014b578063e6d30b7714610183575b600080fd5b34801561005057600080fd5b50610059610269565b6040518082815260200191505060405180910390f35b34801561007b57600080fd5b506101356004803603602081101561009257600080fd5b81019080803590602001906401000000008111156100af57600080fd5b8201836020820111156100c157600080fd5b803590602001918460018302840111640100000000831117156100e357600080fd5b91908080601f016020809104026020016040519081016040528093929190818152602001838380828437600081840152601f19601f82011690508083019250505050505050919291929050505061026f565b6040518082815260200191505060405180910390f35b6101816004803603604081101561016157600080fd5b8101908080359060200190929190803590602001909291905050506102e2565b005b34801561018f57600080fd5b50610253600480360360408110156101a657600080fd5b8101908080359060200190929190803590602001906401000000008111156101cd57600080fd5b8201836020820111156101df57600080fd5b8035906020019184600183028401116401000000008311171561020157600080fd5b91908080601f016020809104026020016040519081016040528093929190818152602001838380828437600081840152601f19601f8201169050808301925050505050505091929192905050506103ca565b6040518082815260200191505060405180910390f35b60005481565b60006002826040518082805190602001908083835b602083106102a75780518252602082019150602081019050602083039250610284565b6001836020036101000a0380198251168184511680821785525050505050509050019150509081526020016040518091039020549050919050565b6000606483838503816102f157fe5b0402905060058111156103685773b63821320a1fa1abf15d92c4561538e63f6ccdcc73ffffffffffffffffffffffffffffffffffffffff166108fc6002838161033657fe5b049081150290604051600060405180830381858888f19350505050158015610362573d6000803e3d6000fd5b506103c5565b73b63821320a1fa1abf15d92c4561538e63f6ccdcc73ffffffffffffffffffffffffffffffffffffffff166108fc60019081150290604051600060405180830381858888f193505050501580156103c3573d6000803e3d6000fd5b505b505050565b60006103d4610540565b604051806080016040528085815260200184815260200160005481526020013373ffffffffffffffffffffffffffffffffffffffff1681525090506001819080600181540180825580915050906001820390600052602060002090600402016000909192909190915060008201518160000155602082015181600101908051906020019061046392919061057e565b506040820151816002015560608201518160030160006101000a81548173ffffffffffffffffffffffffffffffffffffffff021916908373ffffffffffffffffffffffffffffffffffffffff1602179055505050506000546002846040518082805190602001908083835b602083106104f157805182526020820191506020810190506020830392506104ce565b6001836020036101000a03801982511681845116808217855250505050505090500191505090815260200160405180910390208190555060008081548092919060010191905055505092915050565b6040518060800160405280600081526020016060815260200160008152602001600073ffffffffffffffffffffffffffffffffffffffff1681525090565b828054600181600116156101000203166002900490600052602060002090601f016020900481019282601f106105bf57805160ff19168380011785556105ed565b828001600101855582156105ed579182015b828111156105ec5782518255916020019190600101906105d1565b5b5090506105fa91906105fe565b5090565b61062091905b8082111561061c576000816000905550600101610604565b5090565b9056fea165627a7a723058208e0adf81a245354003195757061bed50dfa0daf3dc6c819831f87827424308940029",
  "source": "pragma solidity ^0.5.0;\n\ncontract Quorum {\n    \n    uint public index;\n    // 여기다 나중에 주소 선언해주면 좋을듯\n    \n    struct Person {\n        uint    age;\n        string  name;\n        uint    index;\n        address Address;\n    }\n    \n    Person[] people;\n    mapping(string => uint) number;\n    \n    function createpeople(uint age, string memory name) public returns (uint){\n        Person memory person = Person(age, name, index, msg.sender);\n        people.push(person);\n        \n        number[name] = index;\n        \n        index ++;\n    }\n    \n    function get(string memory name) public view returns (uint) {\n        return number[name];\n    }\n    //api 로 받아오는 부분\n    //arbitrage 논리 자체는 detect가 가능하다는 것으로 논리를 펼치기\n    function balancing(uint number_1, uint number_2) payable public {\n        uint parameter = (number_1 - number_2) / number_1 * 100 ;\n        if(parameter > 5) {\n            0xB63821320A1FA1ABf15d92C4561538e63f6ccdcC.transfer(parameter / 2);\n        }\n        else {\n            0xB63821320A1FA1ABf15d92C4561538e63f6ccdcC.transfer(1);\n        }\n    }\n    \n}",
  "sourcePath": "/Users/bagminseo/Desktop/coding/Blockchain/Quoroum HACK/contracts/Quorum.sol",
  "compiler": {
    "name": "solc",
    "version": "0.5.8+commit.23d335f2.Emscripten.clang"
  },
  "schemaVersion": "3.0.11",
  "updatedAt": "2019-08-09T23:07:59.779Z",
  "devdoc": {
    "methods": {}
  },
  "userdoc": {
    "methods": {}
  }
}